S01E0000726F746172795F656E636F6465725F6D6F746F725F342E7372656303
S11300000C94B5000C947B020C94F6020C94D20070
S11300100C94D2000C94D2000C94D2000C94D20014
S11300200C94D2000C94D2000C94D2000C94D20004
S11300300C94D2000C94D2000C94D2000C94D200F4
S11300400C94D2000C94D2000C94D2000C94D200E4
S11300500C94D2000C94D2000C94D2000C94D200D4
S11300600C94D2000C94D2006E616E00696E66002E
S113007000407A10F35A00A0724E18090010A5D45B
S1130080E80000E87648170000E40B54020000CAB8
S11300909A3B000000E1F5050000809698000000FE
S11300A040420F000000A08601000000102700005D
S11300B00000E803000000006400000000000A00E3
S11300C0000000000100000000002C76D888DC67E6
S11300D04F0823DFC1DFAE59E1B1B796E5E3E4533E
S11300E0C63AE651997696E8E6C28426EB898C9B5B
S11300F062ED407C6FFCEFBC9C9F40F2BAA56FA5FB
S1130100F490055A2AF75C936B6CF9676DC11BFC7C
S1130110E0E40D47FEF520E6B500D0ED902E030097
S1130120943577050080841E080000204E0A0000E4
S113013000C80C333333330F986E12831141EF8DA3
S11301402114893BE65516CFFEE6DB18D1844B38E3
S11301501BF77C1D901DA4BBE424203284725E2214
S11301608100C9F124ECA1E53D2711241FBECFEF86
S1130170D8E0DEBFCDBF11E0A0E0B1E0E4E8F5E1F6
S113018002C005900D92A833B107D9F721E0A8E386
S1130190B1E001C01D92A735B207E1F70E94E90062
S11301A00C94C00A0C9400001092C50082E2809363
S11301B0C400E2ECF0E0808186608083E1ECF0E052
S11301C0808188618083E0ECF0E0808182608083BC
S11301D00895CF93DF93CDB7DEB72C970FB6F8947D
S11301E0DEBF0FBECDBFE9E6F0E08081856080838D
S11301F08DB383608DBB0E94D40010928500109251
S11302008400E1E8F0E080818360808380E091E015
S11302109093540180935301229A219A209A8AB18F
S1130220806E8AB95F9A289A8EE191E09F938F93AA
S11302300E944C0A7894109248011092490110923D
S11302404A0110924B010F900F9004E211E00F2E1F
S1130250FAE22F2EF1E03F2EF02DA4E8B0E0ED906D
S1130260FC90119711961C921E92809140019091DE
S11302704101A0914201B0914301809344019093C4
S11302804501A0934601B093470180913C019091B0
S11302903D01A0913E01B0913F01809340019093B4
S11302A04101A0934201B0934301609148017091D0
S11302B0490180914A0190914B010E94560420E02B
S11302C030E046E155E40E94E20360933C01709300
S11302D03D0180933E0190933F01809112019091E2
S11302E01301A0911401B09115018093160190930C
S11302F01701A0931801B0931901B70180E090E0B1
S11303000E94540420E034E244E758E40E94E203EB
S1130310609312017093130180931401909315015B
S113032040903C0150903D0160903E0170903F012F
S1130330609140017091410180914201909143018B
S11303408090440190904501A0904601B0904701EF
S11303502091160130911701409118015091190113
S113036029833A834B835C832091120130911301DA
S113037040911401509115012D833E834F8358877A
S113038020911601309117014091180150911901E3
S113039029873A874B875C87C0901201D09013015C
S11303A0E0901401F09015019B01AC010E947103CF
S11303B09B01AC01C301B2010E947003A501940129
S11303C00E94710320E030E040E850E40E940605FA
S11303D04B015C012D813E814F81588569817A8171
S11303E08B819C810E9471032B013C01A701960122
S11303F069857A858B859C850E9471039B01AC017C
S1130400C301B2010E9406059B01AC01C501B40100
S11304100E94E203609338017093390180933A019A
S113042090933B0160910E0170910F018091100136
S113043090911101209138013091390140913A0194
S113044050913B010E94DD03882324F45F985D9A58
S11304505E9A03C05F9A5D985E9A8091480190917C
S11304604901A0914A01B0914B01BF93AF939F936F
S11304708F931F930F930E944C0A809112019091C5
S11304801301A0911401B0911501BF93AF939F93F1
S11304908F933F922F920E944C0A80913801909141
S11304A03901A0913A01B0913B01BF93AF939F935F
S11304B08F93AFE2B1E0BF93AF930E944C0AFFEF7A
S11304C020E732E0F15020403040E1F700C0000066
S11304D00FB6F894DEBF0FBECDBFBFCEE0ECF0E0A8
S11304E0908195FFFDCF8093C60008950E946E020F
S11304F080E090E0089578941F920F920FB60F92C7
S113050011248F939F93AF93BF93F8948AE08A95B5
S1130510F1F700C089B180934C0180914C018C703B
S113052080934C0180914C0182FF2CC080914C013E
S113053083FF14C08091480190914901A0914A0120
S1130540B0914B010197A109B1098093480190939F
S11305504901A0934A01B0934B013FC080914801E7
S113056090914901A0914A01B0914B010196A11DBE
S1130570B11D8093480190934901A0934A01B0931F
S11305804B012BC080914C0183FF14C08091480122
S113059090914901A0914A01B0914B010196A11D8E
S11305A0B11D8093480190934901A0934A01B093EF
S11305B04B0113C08091480190914901A0914A01D7
S11305C0B0914B010197A109B1098093480190931F
S11305D04901A0934A01B0934B01BF91AF919F9100
S11305E08F910F900FBE0F901F9018951F920F922E
S11305F00FB60F9211248F939F93AF93BF93F894E8
S11306008AE08A95F1F700C089B180934C0180910A
S11306104C018C7080934C0180914C0182FF2CC062
S113062080914C0183FF14C080914801909149014D
S1130630A0914A01B0914B010196A11DB11D809377
S1130640480190934901A0934A01B0934B013FC0E4
S11306508091480190914901A0914A01B0914B01C8
S11306600197A109B1098093480190934901A0938E
S11306704A01B0934B012BC080914C0183FF14C0FD
S11306808091480190914901A0914A01B0914B0198
S11306900197A109B1098093480190934901A0935E
S11306A04A01B0934B0113C08091480190914901D4
S11306B0A0914A01B0914B010196A11DB11D8093F7
S11306C0480190934901A0934A01B0934B01BF9113
S11306D0AF919F918F910F900FBE0F901F9018951F
S11306E05058BB27AA270E9488030C94CC040E946C
S11306F0BE0438F00E94C50420F039F49F3F19F479
S113070026F40C94BB040EF4E095E7FB0C94B504BA
S1130710E92F0E94DD0458F3BA17620773078407B0
S1130720950720F079F4A6F50C94FF040EF4E095F7
S11307300B2EBA2FA02D0B01B90190010C01CA0197
S1130740A0011124FF27591B99F0593F50F4503E42
S113075068F11A16F040A22F232F342F4427585F34
S1130760F3CF469537952795A795F0405395C9F74C
S11307707EF41F16BA0B620B730B840BBAF0915004
S1130780A1F0FF0FBB1F661F771F881FC2F70EC0A3
S1130790BA0F621F731F841F48F487957795679576
S11307A0B795F7959E3F08F0B0CF9395880F08F062
S11307B09927EE0F9795879508950E94910408F460
S11307C081E008950E94F6030C94CC040E94C504B1
S11307D058F00E94BE0440F029F45F3F29F00C94C5
S11307E0B50451110C9400050C94BB040E94DD0463
S11307F068F39923B1F3552391F3951B550BBB274C
S1130800AA2762177307840738F09F5F5F4F220F90
S1130810331F441FAA1FA9F335D00E2E3AF0E0E887
S113082032D091505040E695001CCAF72BD0FE2FD1
S113083029D0660F771F881FBB1F26173707480765
S1130840AB07B0E809F0BB0B802DBF01FF2793581D
S11308505F4F3AF09E3F510578F00C94B5040C9428
S113086000055F3FE4F3983ED4F38695779567954A
S1130870B795F7959F5FC9F7880F911D9695879552
S113088097F90895E1E0660F771F881FBB1F621771
S113089073078407BA0720F0621B730B840BBA0B2F
S11308A0EE1F88F7E0950895E89409C097FB3EF49D
S11308B090958095709561957F4F8F4F9F4F9923A9
S11308C0A9F0F92F96E9BB279395F6958795779527
S11308D06795B795F111F8CFFAF4BB0F11F460FFE7
S11308E01BC06F5F7F4F8F4F9F4F16C0882311F03F
S11308F096E911C0772321F09EE8872F762F05C053
S1130900662371F096E8862F70E060E02AF09A95ED
S1130910660F771F881FDAF7880F9695879597F9E2
S11309200895990F0008550FAA0BE0E8FEEF16167C
S11309301706E807F907C0F012161306E407F507CF
S113094098F0621B730B840B950B39F40A2661F043
S1130950232B242B252B21F408950A2609F4A140E6
S1130960A6958FEF811D811D089597F99F6780E8F3
S113097070E060E008959FEF80EC089500240A94ED
S11309801616170618060906089500240A94121666
S11309901306140605060895092E0394000C11F499
S11309A0882352F0BB0F40F4BF2B11F460FF04C046
S11309B06F5F7F4F8F4F9F4F089557FD9058440F9F
S11309C0551F59F05F3F71F04795880F97FB991FAA
S11309D061F09F3F79F08795089512161306140667
S11309E0551FF2CF4695F1DF08C0161617061806F4
S11309F0991FF1CF86957105610508940895E894CF
S1130A00BB2766277727CB0197F908950E9419051C
S1130A100C94CC040E94BE0438F00E94C50420F05B
S1130A20952311F00C94B5040C94BB0411240C947C
S1130A3000050E94DD0470F3959FC1F3950F50E00B
S1130A40551F629FF001729FBB27F00DB11D639F7C
S1130A50AA27F00DB11DAA1F649F6627B00DA11D22
S1130A60661F829F2227B00DA11D621F739FB00DC8
S1130A70A11D621F839FA00D611D221F749F332738
S1130A80A00D611D231F849F600D211D822F762FD1
S1130A906A2F11249F5750409AF0F1F088234AF0AE
S1130AA0EE0FFF1FBB1F661F771F881F915050401A
S1130AB0A9F79E3F510580F00C94B5040C940005F1
S1130AC05F3FE4F3983ED4F3869577956795B795A1
S1130AD0F795E7959F5FC1F7FE2B880F911D9695BB
S1130AE0879597F90895A3E1B0E0E9E7F5E00C9460
S1130AF0EF086C014B012A01FC01178216828381E5
S1130B0081FF43C3AE014F5F5F4F3A01F60193810A
S1130B10F40193FD859193FF81914F01882309F49A
S1130B2030C3853239F493FD859193FF81914F0150
S1130B30853239F4B60190E00E94140A520125016D
S1130B40E5CF10E0F12C20E02032A0F48B3269F0E4
S1130B5030F4803259F0833269F420612CC08D3234
S1130B6039F0803339F4216026C02260246023C028
S1130B70286021C027FD27C030ED380F3A3078F4C3
S1130B8026FF06C0FAE01F9F300D1124132F13C057
S1130B904AE0F49E300D1124F32E20620CC08E32F4
S1130BA021F426FDEEC2206406C08C3611F42068C0
S1130BB002C0883641F4F40193FD859193FF81913D
S1130BC04F018111C1CF9BEB980F933018F4206132
S1130BD0805E06C09BE9980F933008F071C12F7EA8
S1130BE026FF16E02F73322E853619F42064322E38
S1130BF008C0863621F4F22FF0683F2E02C011118E
S1130C00115037FE07C01C3350F4EE24E394E10E78
S1130C1027E00BC0183038F027E017E005C027E0C4
S1130C204CE3E42E02C0212FE12C520144E0A40E37
S1130C30B11CF20160817181828193810E2DA30127
S1130C400E9426092C01098100FF02C003FF07C08E
S1130C5031FC08C032FE09C030E2232E07C02DE269
S1130C60222E04C09BE2292E01C0212C802F8C70DF
S1130C7019F0211068C2A8C237FE0FC0E40C04FFAB
S1130C8004C08A81813309F4EA941E1474F5F8E0EF
S1130C90FE1578F588E0E82E2CC036FC2AC0812F9A
S1130CA090E0841595059CF02CEF42162FEF520628
S1130CB074F0432D4068342E0AC0E2E0F0E0EC0FFB
S1130CC0FD1FE10FF11D8081803319F411501111C2
S1130CD0F4CF37FE0EC0EE24E394E10E812F90E0B2
S1130CE0481659062CF4141904C0EE24E39401C0E8
S1130CF010E037FE06C01414150434F4C201019642
S1130D0005C085E090E002C081E090E021100196EA
S1130D10112331F0212F30E02F5F3F4F820F931FBB
S1130D202F2D30E08217930714F4F81A01C0F12C28
S1130D30832D897049F4FF2039F0B60180E290E0F8
S1130D400E94140AFA94F7CF222029F0B601822DCA
S1130D5090E00E94140A33FC09C0FF2039F0B60168
S1130D6080E390E00E94140AFA94F7CF37FE5AC049
S1130D70942D852D57FE02C090E080E0292E382E58
S1130D8020E030E0A2014E1951095D874C87A20191
S1130D90421953095F874E87612F70E04427552716
S1130DA0461B570B598B488B5FEF2516350649F4C4
S1130DB0B6018EE290E02A8B3B8B0E94140A3B8999
S1130DC02A89421453046CF04C855D854215530501
S1130DD044F4EE85FF85E20FF31FE60DF71D8181D4
S1130DE001C080E351E0251A31082F5F3F4F488945
S1130DF05989241635064CF0B60190E02A8B3B8BBA
S1130E000E94140A2A893B89CFCF2414350439F46B
S1130E109A81963318F4953311F404FF81E3B601F3
S1130E2090E04BC08A81813309F00F7EB60190E0D7
S1130E300E94140A111105C034FC18C085E690E024
S1130E4017C0B6018EE290E00E94140A82E0EE24FC
S1130E50E394E80EF301E80FF11D8081B60190E000
S1130E600E94140A11508E2D91F7E6CF85E490E08C
S1130E70B6010E94140A57FC05C04114510439F408
S1130E8004FF05C05194419451088DE201C08BE2E6
S1130E90B60190E00E94140A80E39AE049165104D6
S1130EA02CF08F5F5AE0451A5108F7CFB60190E055
S1130EB00E94140AB601C201C0960E94140A57C1C6
S1130EC0833631F0833779F0833509F058C021C077
S1130ED05201E2E0AE0EB11CF2018081898301E08F
S1130EE010E0230114C05201F2E0AF0EB11CF20174
S1130EF04080518026FF03C0612F70E002C06FEF75
S1130F007FEFC2012A8B0E94090A8C012A892F775C
S1130F1015C05201F2E0AF0EB11CF20140805180C5
S1130F2026FF03C0612F70E002C06FEF7FEFC201A4
S1130F302A8B0E94FE098C012A892068322E23FD07
S1130F401AC08F2D90E008171907A8F4B60180E2A3
S1130F5090E00E94140AFA94F4CFF20137FC8591D0
S1130F6037FE81912F01B60190E00E94140AF1101E
S1130F70FA94015011090115110579F7F8C0843666
S1130F8011F0893659F5520127FF09C0F4E0AF0E7C
S1130F90B11CF20160817181828193810AC0F2E007
S1130FA0AF0EB11CF20160817181072E000C880B19
S1130FB0990B2F76322E97FF09C0909580957095E6
S1130FC061957F4F8F4F9F4F2068322E2AE030E08B
S1130FD0A3010E94620AE82EE6183FC0022F85375B
S1130FE021F40F7E2AE030E01DC0097F8F3691F096
S1130FF018F4883559F0C5C0803719F0883711F0D6
S1131000C0C0006104FF09C0046007C024FF08C019
S1131010066006C028E030E005C020E130E002C0F0
S113102020E132E0520107FF09C0F4E0AF0EB11C29
S1131030F201608171818281938108C0F2E0AF0E78
S1131040B11CF2016081718180E090E0A3010E94F3
S1131050620AE82EE6180F77302E36FE0BC0332DC9
S11310603E7FE11650F434FE0AC032FC08C0332D32
S11310703E7E05C00E2D332D03C00E2D01C0012F61
S113108034FF0CC0FE01EE0DF11D8081803311F49C
S1131090397E08C032FF05C00E5F04C0832F8678F6
S11310A009F00F5F33FD13C030FF06C01E2D0F156E
S11310B018F41F0D101B0F2D0F1568F4B60180E2F4
S11310C090E03B8B0E94140A0F5F3B89F5CF0F150C
S11310D010F4F01A01C0F12C34FF12C0B60180E301
S11310E090E03B8B0E94140A3B8932FF17C031FD0C
S11310F003C088E790E002C088E590E0B6010CC028
S1131100832F867859F031FF02C08BE201C080E260
S113111037FD8DE2B60190E00E94140AE11638F41E
S1131120B60180E390E00E94140A1150F7CFEA94CC
S1131130F301EE0DF11D8081B60190E00E94140AC6
S1131140E110F5CF14C0F4E0FF1558F584E0F81A67
S113115033FE1EC0211026C003FF2AC008E610E09B
S1131160F32DF0713F2EF8018491811124C0FF20EA
S113117009F4E5CCB60180E290E00E94140AFA94E6
S1131180F6CFF6018681978126C08FEF9FEF23C0AB
S1131190B60180E290E00E94140AFA94F110F8CFAC
S11311A0D9CFF12CB601822D90E00E94140AD4CF3D
S11311B00CE610E0D5CF31108052B60190E00E94C9
S11311C0140A0F5F1F4FCFCF23E02F1510F483E0D5
S11311D0BECFF12CC1CF6396E2E10C940B092F92A0
S11311E03F924F925F926F927F928F929F92AF92B3
S11311F0BF92CF92DF92EF92FF920F931F93CF9300
S1131200DF93CDB7DEB7CA1BDB0B0FB6F894DEBF96
S11312100FBECDBF09942A88398848885F846E84BC
S11312207D848C849B84AA84B984C884DF80EE8006
S1131230FD800C811B81AA81B981CE0FD11D0FB60F
S1131240F894DEBF0FBECDBFED010895283008F03D
S113125027E03327DA01990F311D87FD916000964D
S11312606105710539F432602E5F3D9330E32A95B0
S1131270E1F708959F3F30F080387105610509F06A
S11312803C5F3C5F3D93913008F08068911DDF9393
S1131290CF931F930F93FF92EF92192F987F9695F8
S11312A0E92F96959695E90FFF27E653FF4F992767
S11312B03327EE24FF24A701E7010590089407943F
S11312C028F4360FE71EF81E491F511D660F771FBD
S11312D0881F991F0694A1F70590079428F4E70E38
S11312E0F81E491F561FC11D770F881F991F661FBF
S11312F00694A1F70590079428F4F80E491F561F89
S1131300C71FD11D880F991F661F771F0694A1F769
S11313100590079420F4490F561FC71FD81F990F33
S1131320661F771F881F0694A9F78491109517707C
S113133041F0D695C79557954795F794E7941A9534
S1131340C1F7E0E7F0E06894159015913591659147
S1131350959105907FE27395E118F10A430B560BC2
S1131360C90BD009C0F7E10CF11E431F561FC91F5A
S1131370D01D7EF4703311F48A95E6CFE8940150C1
S113138030F0080F0AF40027021708F4202F2395E1
S1131390022F7A3328F079E37D932A95E9F710C078
S11313A07D932A9589F606949795679537951795B1
S11313B01794E118F10A430B560BC90BD00998F0A6
S11313C023957E9173957A3308F070E37C93201310
S11313D0B8F77E9170617D9330F0839571E37D93CE
S11313E070E32A95E1F71124EF90FF900F911F917C
S11313F0CF91DF91992787FD90950895FC01059081
S1131400615070400110D8F7809590958E0F9F1F02
S11314100895FC016150704001900110D8F7809547
S113142090958E0F9F1F08950F931F93CF93DF9373
S1131430FB01238121FD03C08FEF9FEF28C022FF12
S113144016C046815781248135814217530744F4DD
S1131450A081B1819D012F5F3F4F318320838C9305
S1131460268137812F5F3F4F3783268310C0EB01DE
S1131470092F182F0084F185E02D0995892BE1F6B9
S11314808E819F8101969F838E83812F902FDF9180
S1131490CF911F910F910895A0E0B0E0E2E5FAE04A
S11314A00C94FF08AE014B5F5F4FFA01619171919B
S11314B0AF0180915301909154010E947305E2E0C1
S11314C00C941B09FA01AA27283051F1203181F12B
S11314D0E8946F936E7F6E5F7F4F8F4F9F4FAF4F38
S11314E0B1E03ED0B4E03CD0670F781F891F9A1F4B
S11314F0A11D680F791F8A1F911DA11D6A0F711DFF
S1131500811D911DA11D20D009F468943F912AE00A
S1131510269F11243019305D3193DEF6CF010895F2
S1131520462F4770405D4193B3E00FD0C9F7F6CF23
S1131530462F4F70405D4A3318F0495D31FD4052EB
S1131540419302D0A9F7EACFB4E0A6959795879581
S113155077956795BA95C9F7009761057105089560
S11315609B01AC010A2E069457954795379527950C
S1131570BA95C9F7620F731F841F951FA01D0895A4
S1071580F894FFCF09
S11315840000000200000000760200000000CDCC40
S11315944C3E0000803F0000803F31003000616C0D
S11315A4697665002520326920002C202566002CEC
S10B15B4202566200D0A000049
S9030000FC
