:10000000C6C00000E2C00000E0C00000DEC000008A
:10001000DCC000004AC20000C1C2000026C30000CC
:1000200055C30000D2C00000D0C00000CEC0000008
:10003000CCC00000CAC00000C8C00000C6C000009C
:10004000C4C00000C2C0000065C60000BEC0000001
:10005000BCC00000BAC00000B8C00000B6C00000BC
:10006000B4C00000B2C00000B0C00000AEC00000CC
:10007000ACC00000AAC0000011C50000A6C000006E
:10008000A4C00000A2C00000A0C000006E616E000D
:10009000696E660000407A10F35A00A0724E18098B
:1000A0000010A5D4E80000E87648170000E40B54DF
:1000B000020000CA9A3B000000E1F50500008096AE
:1000C0009800000040420F000000A08601000000E0
:1000D000102700000000E80300000000640000009A
:1000E00000000A00000000000100000000002C7663
:1000F000D888DC674F0823DFC1DFAE59E1B1B7967E
:10010000E5E3E453C63AE651997696E8E6C28426DA
:10011000EB898C9B62ED407C6FFCEFBC9C9F40F2B6
:10012000BAA56FA5F490055A2AF75C936B6CF96732
:100130006DC11BFCE0E40D47FEF520E6B500D0EDF7
:10014000902E0300943577050080841E080000205F
:100150004E0A000000C80C333333330F986E1283FD
:100160001141EF8D2114893BE65516CFFEE6DB18D1
:10017000D1844B381BF77C1D901DA4BBE424203296
:1001800084725E228100C9F124ECA1E53D2711248F
:100190001FBECFEFD0E1DEBFCDBF11E0A0E0B1E0E8
:1001A000EEE4F4E200E00BBF02C007900D92AE391E
:1001B000B107D9F722E0AEE9B1E001C01D92AA373C
:1001C000B207E1F7A6D40C9425121ACFF894D39A6B
:1001D000DB989AE02CE52A95F1F700C080FF02C079
:1001E000DB9A01C0DB9886959150A1F7D398DB9AF2
:1001F00078940895AF92BF92CF92DF92EF92FF92E0
:100200000F931F93CF93DF930F2EF2EAEF2EF1E0BF
:10021000FF2EF02D04EA11E026EA31E048EA51E031
:100220006AEA71E08CEA91E00E94130A8CB59DB5F0
:10023000A090BC01B090BD01C090BE01D090BF01A4
:10024000E090C001F090C1010091C2011091C30182
:10025000282F392F40E050E060E070E080E090E02F
:100260000E9455100E94620B20E034E244E75BE4F8
:100270000E94C90A6B017C012091B8013091B9013B
:100280004091BA015091BB010E94600A20E030E029
:1002900040E85CE30E94C50A882354F18091A601DE
:1002A0009091A7014F96BC01990F880B990B0E9462
:1002B000680B2DEB3DE44CE85AE30E946A0C209158
:1002C000B6013091B701C092B801D092B901E09265
:1002D000BA01F092BB012091A6013091A7013093A1
:1002E000B7012093B601562F472F382F292F04C06E
:1002F00050E040EC39E724E4652F742F832F922FD0
:10030000DF91CF911F910F91FF90EF90DF90CF90F1
:10031000BF90AF9008958F929F92AF92BF920F932C
:100320001F93CF93DF934B015C0164DF062F172FE0
:10033000D82FC92F20E030EC49E754E40E94C50AC9
:10034000882309F49CC08091B0019091B1019295ED
:1003500082958F7089279F708927803A910524F4B0
:1003600082E38093AE0140C08F39924024F08EEC3E
:100370008093AE0139C020E030E0A901C501B4018D
:100380000E94660C18168CF4A5019401602F712F41
:100390008D2F9C2F0E94C50A88233CF480E5809312
:1003A000AE0181E0809362001FC020E030E0A9012F
:1003B000C501B4010E94C50A88238CF4A5019401EB
:1003C000602F712F8D2F9C2F0E94660C18163CF405
:1003D00080EB8093AE0181E08093620005C01092B3
:1003E000AE0181E080936200CF93DF931F930F9360
:1003F00084E191E09F938F930E948411E2E6F0E004
:1004000080818260808320E030E048EC52E4602FFD
:10041000712F8D2F9C2F0E946A0C0E94310B9B0123
:10042000772324F422273327261B370B022E000CB8
:10043000330B0F900F900F900F900F900F9012169C
:1004400013063CF480E090E00000019682179307C9
:10045000DCF3E2E6F0E080818D7F80832091AE01C5
:10046000022E000C330B33231CF4319521953109F6
:10047000822F9091AE0199230CF48068A7DE80E072
:10048000DF91CF911F910F91BF90AF909F908F9070
:10049000089598B3917098BB882331F082FDC59A76
:1004A00081FDC79A80FDC69A08951F920F920FB6DC
:1004B0000F9211240BB60F92AF92BF92CF92DF92A0
:1004C000EF92FF920F931F932F933F934F935F935E
:1004D0006F937F938F939F93AF93BF93CF93DF934C
:1004E000EF93FF938CB59DB58331904358F4E09121
:1004F000C701F0E08CB59DB5EE0FFF1FE852FE4F2F
:10050000918380838CB59DB5A090BC01B090BD0156
:10051000C090BE01D090BF01E090C001F090C10139
:100520000091C2011091C301282F392F40E050E003
:1005300060E070E080E090E00E9455102093BC01E4
:100540003093BD014093BE015093BF016093C00141
:100550007093C1018093C2019093C3011DBC1CBC68
:100560007894FF91EF91DF91CF91BF91AF919F91DF
:100570008F917F916F915F914F913F912F911F913B
:100580000F91FF90EF90DF90CF90BF90AF900F90C2
:100590000BBE0F900FBE0F901F9018951F920F92D9
:1005A0000FB60F9211240BB60F922F933F938F9398
:1005B0009F93EF93FF9380910F0181110CC08CB535
:1005C0009DB52091120130911301820F931F9093DA
:1005D000130180931201789480910F018F5F8093B3
:1005E0000F0180910F01813049F5E091C701F0E0E2
:1005F0008091120190911301EE0FFF1FE850FE4F02
:100600009183808380911201909113019093B101A5
:100610008093B00110921301109212018091C701D2
:1006200090E0019687709078992324F40197886F61
:100630009F6F01968093C70110920F0180910F0167
:10064000823030F010920F011092130110921201BB
:10065000FF91EF919F918F913F912F910F900BBE42
:100660000F900FBE0F901F9018951F920F920FB60C
:100670000F9211240BB60F922F938F939F93EF93AA
:10068000FF9380918800909189008331904368F4B2
:10069000E091C501F0E08091880090918900EE0F13
:1006A000FF1FE853FE4F91838083109289001092C0
:1006B00088007894FF91EF919F918F912F910F90E7
:1006C0000BBE0F900FBE0F901F9018951F920F92A8
:1006D0000FB60F9211240BB60F922F933F938F9367
:1006E0009F93EF93FF9380910E0181110EC0809133
:1006F0008800909189002091100130911101820FA2
:10070000931F9093110180931001789480910E01B2
:100710008F5F80930E0180910E01813009F5E09189
:10072000C501F0E08091100190911101EE0FFF1FC3
:10073000E851FE4F918380831092110110921001B5
:100740008091C50190E0019687709078992324F4F8
:100750000197886F9F6F01968093C50110920E01DB
:1007600080910E01823030F010920E011092110132
:1007700010921001FF91EF919F918F913F912F91D6
:100780000F900BBE0F900FBE0F901F9018951092F8
:10079000980080E180939900EBE9F0E0808182602D
:1007A000808388E980939A0086E080939D00089575
:1007B0008FEF80936A008BEB8ABF80EF89BF1DBCEF
:1007C0001CBC8EB581608EBD10928900109288008D
:1007D000EAE8F0E0808181608083D9DF80E187BB37
:1007E00087E084BB84E085BB80E0F0CC0895EBE932
:1007F000F0E0908195FFFDCF80939C00089582E109
:10080000F6CF0895E091A101F0E0E85FFD4F80810F
:100810009091A1019F5F97709093A10108952091FD
:10082000A1019091A00181E0291301C080E0089509
:10083000CF93C82F892FDBDF8C2FD9DFCF9108957D
:10084000CF92DF92EF92FF920F931F93CF93DF939C
:10085000CDB7DEB7A0970FB6F894DEBF0FBECDBF01
:100860008F3709F0CBC0D3C03093440220934302AA
:10087000F8949091C7019093C6019091C50190930F
:10088000C4010091390210913A02609143027091C3
:100890004402DE0111967E0191E1E90EF11C20E097
:1008A00030E0A801420F531FFA01408151814D935E
:1008B0005D93AB01420F531FFA0140815181F70153
:1008C000419351937F012E5F3F4F2031310549F70E
:1008D00078948F3709F05FC08AE191E00E94971108
:1008E00000E010E00F2EF8E9EF2EF1E0FF2EF02DE2
:1008F0008091C401F801E80FF11DE770FF27EE0FAA
:10090000FF1F81E090E08C0F9D1FE80FF91FD0883A
:10091000C1888D2D9C2D8CDFCF92DF92FF92EF92BC
:100920000E9484110F5F1F4F0F900F900F900F9038
:1009300008301105E9F682E391E00E94971100E08A
:1009400010E00F2EF8E9EF2EF1E0FF2EF02D809150
:10095000C601F801E80FF11DE770FF27EE0FFF1F3A
:1009600081E090E08C0F9D1FE80FF91FD080C180BF
:100970008D2D9C2D5DDFCF92DF92FF92EF920E9432
:1009800084110F5F1F4F0F900F900F900F90083042
:100990001105E9F674C000E010E08091C401F8018F
:1009A000E80FF11DE770FF27EE0FFF1F81E090E0D9
:1009B0008C0F9D1FE80FF91F8089918939DF0F5F28
:1009C0001F4F0830110549F700E010E08091C60183
:1009D000F801E80FF11DE770FF27EE0FFF1F81E020
:1009E00090E08C0F9D1FE80FF91F8081918120DF1F
:1009F0000F5F1F4F0830110549F712C028EF31E093
:100A000030933A022093390228EE31E02DCF28EDC1
:100A100031E030933A022093390228EC31E024CFC0
:100A20000F2EF2EAEF2EF1E0FF2EF02D04EA11E096
:100A300026EA31E048EA51E06AEA71E08CEA91E0A6
:100A4000F2D48091A6019091A701F2DE8091A401D9
:100A50009091A501EDDE8091A2019091A301E8DEC5
:100A60008091AC019091AD01E3DE8091AA0190915B
:100A7000AB01DEDE8091A8019091A901D9DEA0969C
:100A80000FB6F894DEBF0FBECDBFDF91CF911F919F
:100A90000F91FF90EF90DF90CF9008951F920F92EB
:100AA0000FB60F9211240BB60F928F939F93EF9373
:100AB000FF93E091A00180919C00F0E0E85FFD4F82
:100AC00080838091A0018F5F87708093A0019091B7
:100AD000A0018091A101981306C08091A1018F5FB0
:100AE00087708093A101FF91EF919F918F910F905B
:100AF0000BBE0F900FBE0F901F9018951092900094
:100B000087E089B9599A88E98AB986E08093950087
:100B1000089581E0BEDCF2DF80E091E090937702FF
:100B2000809376028AE491E09F938F930E948411D0
:100B30004DD42FEF80E792E0215080409040E1F7C4
:100B400000C0000035DE80E041DB8091BC01909167
:100B5000BD012091BE013091BF014091C001509173
:100B6000C1016091C2017091C3017F936F935F9344
:100B70004F933F932F939F938F93CC24CA94DC2C55
:100B8000E12CF12C00E01FE320E030E040E251E4F2
:100B900060E070E080E791E4DBD1789482E079DC7A
:100BA00080E591E00E9497118FEF809361008DB7EF
:100BB0009EB70A960FB6F8949EBF0FBE8DBF08E78A
:100BC00011E0FF24F394CBE8D1E029DE882309F477
:100BD00086C018DE80931D02813009F053C01FDEED
:100BE0008823E9F30FDE80932A028C3011F407DEAC
:100BF00076C08B3031F413DE8823E9F303DE49DC61
:100C00006EC08D3009F03BC083E043DC85E691E0A7
:100C10000E949711F7DD682F6F7788230CF4619598
:100C2000062E000C770B880B990B52D520E030E094
:100C300040E251E4AED46093B2017093B30180936B
:100C4000B4019093B5018091B2019091B301A0914C
:100C5000B401B091B501BF93AF939F938F931F934E
:100C60000F930E948411F092AF0180911D02E8DD84
:100C70000F900F900F900F900F900F9030C084E066
:100C800008DC2DC0811103C082E003DC02C08F2D7F
:100C900000DC1092AF0120911D02922F990F9093CA
:100CA0001C0290911C02969590931C0222232CF416
:100CB00080911C02819580931C0280911C0286DA2F
:100CC00080911D02BDDD90911C021F929F93DF93C6
:100CD000CF930E9484110F900F900F900F909091DE
:100CE000AF01992349F06091B2017091B3018091F5
:100CF000B4019091B5010FDB87E594E00197F1F71E
:100D000064CF5D9BFECF8CB9089590E0FADF80E060
:100D100090E008951F920F920FB60F9211240BB618
:100D20000F928F939F93EF93FF93E0919E018CB16D
:100D3000F0E0EE5DFD4F808380919E018F5F8770B4
:100D400080939E0190919E0180919F01981306C00F
:100D500080919F018F5F877080939F01FF91EF913A
:100D60009F918F910F900BBE0F900FBE0F901F9011
:100D700018954F925F926F927F928F929F92AF924F
:100D8000BF92CF92DF92EF92FF920F931F934B018E
:100D90005C0129013A016701780120E030E0A901F6
:100DA000F4D388230CF472C020E030E0A901C30121
:100DB000B201EBD388230CF469C020E030E0A90134
:100DC000C701B601E2D388230CF460C080925502BB
:100DD00090925602A0925702B09258024092490255
:100DE00050924A0260924B0270924C02C092620290
:100DF000D0926302E0926402F092650280925902FE
:100E000090925A02A0925B02B0925C0240923F0222
:100E1000509240026092410270924202C0921002CF
:100E2000D0921102E0921202F092130280913702E6
:100E300090913802019751F5A501940160E070E0AE
:100E4000CB013ED36093590270935A0280935B02A8
:100E500090935C02A301920160E070E0CB0130D37B
:100E600060933F027093400280934102909342024C
:100E7000A701960160E070E0CB0122D360931002DD
:100E80007093110280931202909313021F910F919D
:100E9000FF90EF90DF90CF90BF90AF909F908F909A
:100EA0007F906F905F904F900895CF93DF93EC0108
:100EB00080915D02882309F444C0809137029091AB
:100EC0003802C817D90709F43CC020915902309163
:100ED0005A0240915B0250915C0260E070E0CB01ED
:100EE000EFD26093590270935A0280935B02909301
:100EF0005C0220913F0230914002409141025091AA
:100F0000420260E070E0CB01DBD260933F0270935D
:100F1000400280934102909342022091100230914E
:100F20001102409112025091130260E070E0CB0177
:100F3000C7D26093100270931102809312029093B3
:100F40001302D0933802C0933702DF91CF910895F6
:100F50004F925F926F927F928F929F92AF92BF92C9
:100F6000CF92DF92EF92FF920F931F93CF93DF9375
:100F7000CDB7DEB72C970FB6F894DEBF0FBECDBF4E
:100F800069837A838B839C832D833E834F83588729
:100F9000E986FA860B871C87C6014F8C58A069A08A
:100FA0007AA010923B0210923C0210923D021092E5
:100FB0003E0221E020935D0240E050E06CEF72ECD5
:100FC000409318025093190260931A0270931B0207
:100FD00040E050E06CEF72E440931402509315022D
:100FE000609316027093170244E650E060E070E0F0
:100FF00040935E0250935F026093600270936102BF
:1010000054DFE984FA840B851C852D813E814F8154
:10101000588569817A818B819C81ABDE80915E02EB
:1010200090915F02A0916002B0916102A3019201D0
:10103000281B390B4A0B5B0B209345023093460269
:1010400040934702509348022C960FB6F894DEBFA7
:101050000FBECDBFDF91CF911F910F91FF90EF9009
:10106000DF90CF90BF90AF909F908F907F906F90C8
:101070005F904F900895109271008CE08093700003
:10108000089594EA909374004FEF50E060E070E0B0
:10109000E4E7F0E09081992334F04150510961096F
:1010A0007109C0F704C0452B462B472B41F19091A5
:1010B0007100987F983011F0903119F5809373008A
:1010C00084E8809374008FEF90E0A0E0B0E0E4E764
:1010D000F0E0208122232CF00197A109B109C8F783
:1010E00004C0892B8A2B8B2B71F090917100987F13
:1010F000983159F081E0903449F480E0089581E01E
:10110000089581E0089581E0089580E0089584E9DC
:101110008093740080E090E0E4E7F0E0208124FF19
:1011200005C00196811521E09207C1F708958093CB
:10113000730084E8809374008FEF90E0A0E0B0E04B
:10114000E4E7F0E0208122232CF00197A109B10906
:10115000C8F704C0892B8A2B8B2B41F0909171002A
:10116000987F81E0983219F480E0089581E0089535
:1011700084EC809374008FEF90E0A0E0B0E0E4E7AF
:10118000F0E0208122232CF00197A109B109C8F7D2
:1011900004C0892B8A2B8B2B19F080917300089542
:1011A00080E0089584E8809374008FEF90E0A0E0E1
:1011B000B0E0E4E7F0E0208122232CF00197A109C0
:1011C000B109C8F704C0892B8A2B8B2B19F08091A9
:1011D0007300089580E00895AF92BF92DF92EF927E
:1011E000FF920F931F93CF93DF93662399F1C52F3F
:1011F000D42FD62E182F80ED44DF812F98DF87EC77
:1012000090E00197F1F700C0000081ED3ADF0D2F6B
:101210001C2FEE24EA94ED0CF12C9FEFE91AF90A49
:10122000C0E0D0E0AD2CB12CE1E0AE1AB108CA1597
:10123000DB0521F4B7DFF801808303C099DFF801F3
:10124000808321960F5F1F4FCE15DF0581F7CD2DCF
:101250005EDF01C0C0E08C2FDF91CF911F910F9115
:10126000FF90EF90DF90BF90AF900895AB0161E0E9
:10127000B3CF0895EF92FF920F931F93CF93DF9315
:101280006623B1F07A01162FC82F80EDFADE8C2F7D
:101290004EDFE7016FEF610F062F10E00F5F1F4F6A
:1012A0000E0D1F1D899143DFC017D107D9F72FDF1E
:1012B000DF91CF911F910F91FF90EF900895CF9301
:1012C000DF931F92CDB7DEB76983AE014F5F5F4FEB
:1012D00061E0D0DF0F90DF91CF910895EF92FF9200
:1012E0000F931F93CF93DF931F92CDB7DEB74423A5
:1012F00079F1F22E142F062FE82E1982BE016F5FAE
:101300007F4FB4DF882321F1402F50E0411B51096A
:101310004F5F5F4F81E090E002C0880F991F1A95E0
:10132000E2F70197042E02C0880F991F0A94E2F792
:101330002F2D30E002C0220F331F4A95E2F7682FAD
:101340006095998169238223682B69838E2DB7DF8D
:101350000F90DF91CF911F910F91FF90EF90089523
:10136000FF920F931F93CF93DF931F92CDB7DEB7FA
:10137000182F062FF42EBE016F5F7F4F77DFFF20FF
:1013800059F021E030E0B90102C0660F771F0A95DD
:10139000E2F78981682B0BC021E030E0B90102C07F
:1013A000660F771F0A95E2F7609599816923698333
:1013B000812F85DF0F90DF91CF911F910F91FF90CB
:1013C000089540E066E08BE6CBCF089554DE25E338
:1013D0002A95F1F700008FEF91EE24E081509040C4
:1013E0002040E1F700C00000ECDF8FE39CE90197AB
:1013F000F1F700C0000021E043E062E08BE66EDF21
:1014000023E043E062E08AE169DF64E089E157DFDD
:1014100023E042E064E08BE161DF20E042E064E051
:101420008CE15CCF08958F929F92AF92BF92CF9242
:10143000DF92EF92FF920F931F93CF93DF934C01B4
:101440005B016A01E90146E652E06EE08BE3C4DE2F
:10145000E6E6F2E02081818190E0922BD4018D9329
:101460009C932281838190E0922BD5018D939C9354
:101470002481858190E0922BD6018D939C932085C9
:10148000818590E0922B998388832285838590E0E3
:10149000922BD8018D939C932485858590E0922B87
:1014A000F70191838083DF91CF911F910F91FF907E
:1014B000EF90DF90CF90BF90AF909F908F90089566
:1014C0005058BB27AA270ED0C7C1B8D130F0BDD124
:1014D00020F031F49F3F11F41EF49DC10EF4E0950D
:1014E000E7FB93C1E92FC9D180F3BA1762077307ED
:1014F0008407950718F071F49EF5E1C10EF4E095AC
:101500000B2EBA2FA02D0B01B90190010C01CA01BD
:10151000A0011124FF27591B99F0593F50F4503E68
:1015200068F11A16F040A22F232F342F4427585F5A
:10153000F3CF469537952795A795F0405395C9F772
:101540007EF41F16BA0B620B730B840BBAF091502A
:10155000A1F0FF0FBB1F661F771F881FC2F70EC0C9
:10156000BA0F621F731F841F48F48795779567959C
:10157000B795F7959E3F08F0B3CF9395880F08F085
:101580009927EE0F9795879508951BD108F481E070
:1015900008950CD061C159D140F050D130F021F400
:1015A0005F3F19F032C151118BC135C166D198F33B
:1015B0009923C9F35523B1F3951B550BBB27AA27D4
:1015C00062177307840738F09F5F5F4F220F331F46
:1015D000441FAA1FA9F333D00E2E3AF0E0E830D012
:1015E00091505040E695001CCAF729D0FE2F27D015
:1015F000660F771F881FBB1F261737074807AB07E3
:10160000B0E809F0BB0B802DBF01FF2793585F4F57
:101610002AF09E3F510568F0F8C052C15F3FECF3DD
:10162000983EDCF3869577956795B795F7959F5F1C
:10163000C9F7880F911D9695879597F90895E1E070
:10164000660F771F881FBB1F621773078407BA07CF
:1016500020F0621B730B840BBA0BEE1F88F7E0952A
:10166000089504D06894B1112BC108950ED188F06B
:101670009F5790F0B92F9927B751A0F0D1F0660F7E
:10168000771F881F991F1AF0BA95C9F712C0B13099
:1016900081F015D1B1E0089512C1672F782F882706
:1016A000B85F39F0B93FCCF3869577956795B395D8
:1016B000D9F73EF490958095709561957F4F8F4F47
:1016C0009F4F089597FB0EF4A9D03EC0E89409C03F
:1016D00097FB3EF490958095709561957F4F8F4F65
:1016E0009F4F9923A9F0F92F96E9BB279395F6957B
:1016F000879577956795B795F111F8CFFAF4BB0FF9
:1017000011F460FF1BC06F5F7F4F8F4F9F4F16C05C
:10171000882311F096E911C0772321F09EE8872FE6
:10172000762F05C0662371F096E8862F70E060E0A2
:101730002AF09A95660F771F881FDAF7880F96951B
:10174000879597F90895E894F92F96EBFF2381F098
:10175000121613061406440B9395F6958795779504
:10176000679557954040FF23B9F71BC09927089507
:10177000882351F49850D2F7872B762F652F542F5A
:10178000432F322F20E0B1F3121613061406440B38
:1017900088233AF09A95440F551F661F771F881FBC
:1017A000CAF755234AF4440F551F11F460FF04C0D3
:1017B0006F5F7F4F8F4F9F4F880F9695879597F953
:1017C0000895990F0008550FAA0BE0E8FEEF1616D2
:1017D0001706E807F907C0F012161306E407F50725
:1017E00098F0621B730B840B950B39F40A2661F099
:1017F000232B242B252B21F408950A2609F4A1403C
:10180000A6958FEF811D811D089597F99F6780E848
:1018100070E060E008959FEF80EC089590958095CA
:101820007095609550954095309521953F4F4F4F5D
:101830005F4F6F4F7F4F8F4F9F4F089500240A9443
:101840001616170618060906089500240A9412169B
:101850001306140605060895092E0394000C11F4CE
:10186000882352F0BB0F40F4BF2B11F460FF04C07B
:101870006F5F7F4F8F4F9F4F089557FD9058440FD4
:10188000551F59F05F3F71F04795880F97FB991FDF
:1018900061F09F3F79F0879508951216130614069C
:1018A000551FF2CF4695F1DF08C016161706180629
:1018B000991FF1CF86957105610508940895E89404
:1018C000BB2766277727CB0197F908957ADF08F4BD
:1018D0008FEF08950BD0C0CFB1DF28F0B6DF18F03E
:1018E000952309F092CF97CF1124EACFC6DFA0F35A
:1018F000959FD1F3950F50E0551F629FF001729FA5
:10190000BB27F00DB11D639FAA27F00DB11DAA1FC3
:10191000649F6627B00DA11D661F829F2227B00D10
:10192000A11D621F739FB00DA11D621F839FA00D9B
:10193000611D221F749F3327A00D611D231F849FEB
:10194000600D211D822F762F6A2F11249F57504042
:101950008AF0E1F088234AF0EE0FFF1FBB1F661FDD
:10196000771F881F91505040A9F79E3F510570F096
:101970004CCFA6CF5F3FECF3983EDCF3869577958E
:101980006795B795F795E7959F5FC1F7FE2B880F91
:10199000911D9695879597F908952F923F924F92B2
:1019A0005F926F927F928F929F92AF92BF92CF92EF
:1019B000DF92EF92FF920F931F93CF93DF93CDB7F8
:1019C000DEB763970FB6F894DEBF0FBECDBF6C01D4
:1019D0004B012A01FC0117821682838181FF29C3F2
:1019E000AE014F5F5F4F3A01F6019381F40193FD21
:1019F000859193FF81914F01882309F416C38532A5
:101A000039F493FD859193FF81914F01853231F433
:101A1000B60190E041D452012501E6CF10E0F12C4F
:101A200020E02032A0F48B3269F030F4803259F09B
:101A3000833269F420612CC08D3239F0803339F45F
:101A4000216026C02260246023C0286021C027FDB9
:101A500027C030ED380F3A3078F426FF06C0FAE0A0
:101A60001F9F300D1124132F13C04AE0F49E300D38
:101A70001124F32E20620CC08E3221F426FDD5C233
:101A8000206406C08C3611F4206802C0883641F408
:101A9000F40193FD859193FF81914F018111C1CF95
:101AA0009BEB980F933018F42061805E06C09BE991
:101AB000980F933008F064C12F7E26FF16E02F7335
:101AC000322E853619F42064322E08C0863621F471
:101AD000F22FF0683F2E02C01111115037FE07C0DF
:101AE0001C3350F4EE24E394E10E27E00BC01830D1
:101AF00038F027E017E005C027E04CE3E42E02C0F1
:101B0000212FE12C520144E0A40EB11CF2016081AE
:101B10007181828193810E2DA301D0D22C01098184
:101B200000FF02C003FF07C031FC08C032FE09C03D
:101B300030E2232E07C02DE2222E04C09BE2292E84
:101B400001C0212C802F8C7019F0211051C28DC240
:101B500037FE0FC0E40C04FF04C08A81813309F40E
:101B6000EA941E1474F5F8E0FE1578F588E0E82E86
:101B70002CC036FC2AC0812F90E0841595059CF07E
:101B80002CEF42162FEF520674F0432D4068342E8E
:101B90000AC0E2E0F0E0EC0FFD1FE10FF11D8081D3
:101BA000803319F411501111F4CF37FE0EC0EE241A
:101BB000E394E10E812F90E0481659062CF4141995
:101BC00004C0EE24E39401C010E037FE06C01414F4
:101BD000150434F4C201019605C085E090E002C00E
:101BE00081E090E021100196112331F0212F30E0A7
:101BF0002F5F3F4F820F931F2F2D30E082179307E7
:101C000014F4F81A01C0F12C832D897041F4FF20DF
:101C100031F0B60180E290E03FD3FA94F8CF222071
:101C200021F0B601822D90E037D333FC08C0FF20AD
:101C300031F0B60180E390E02FD3FA94F8CF37FE6D
:101C400058C0942D852D57FE02C090E080E0292ECB
:101C5000382E20E030E0A2014E1951095D874C87F3
:101C6000A201421953095F874E87612F70E0442714
:101C70005527461B570B598B488B5FEF25163506AA
:101C800041F4B6018EE290E02A8B3B8B05D33B8971
:101C90002A89421453046CF04C855D854215530526
:101CA00044F4EE85FF85E20FF31FE60DF71D8181F9
:101CB00001C080E351E0251A31082F5F3F4F48896A
:101CC00059892416350644F0B60190E02A8B3B8BE7
:101CD000E3D22A893B89D1CF2414350439F49A817F
:101CE000963318F4953311F404FF81E3B60190E0C4
:101CF00045C08A81813309F00F7EB60190E0CCD2D5
:101D0000111105C034FC16C085E690E015C0B6017F
:101D10008EE290E0C1D282E0EE24E394E80EF3017B
:101D2000E80FF11D8081B60190E0B6D211508E2DE2
:101D300099F7E8CF85E490E0B601AED257FC05C034
:101D40004114510439F404FF05C0519441945108E1
:101D50008DE201C08BE2B60190E09ED280E39AE072
:101D6000491651042CF08F5F5AE0451A5108F7CFFD
:101D7000B60190E091D2B601C201C0968DD24CC19D
:101D8000833631F0833779F0833509F054C020C0B1
:101D90005201E2E0AE0EB11CF2018081898301E0C4
:101DA00010E0230113C05201F2E0AF0EB11CF201AA
:101DB0004080518026FF03C0612F70E002C06FEFAA
:101DC0007FEFC2012A8B5DD28C012A892F7714C044
:101DD0005201F2E0AF0EB11CF2014080518026FFAB
:101DE00003C0612F70E002C06FEF7FEFC2012A8B4A
:101DF0003DD28C012A892068322E23FD18C08F2DF8
:101E000090E00817190798F4B60180E290E044D2F8
:101E1000FA94F5CFF20137FC859137FE81912F01BD
:101E2000B60190E039D2F110FA9401501109011570
:101E3000110581F7F1C0843611F0893651F5520150
:101E400027FF09C0F4E0AF0EB11CF201608171817F
:101E5000828193810AC0F2E0AF0EB11CF201608171
:101E60007181072E000C880B990B2F76322E97FF6D
:101E700009C090958095709561957F4F8F4F9F4FCA
:101E80002068322E2AE030E0A30181D2E82EE61845
:101E90003EC0022F853721F40F7E2AE030E01DC0BE
:101EA000097F8F3691F018F4883559F0BEC080371D
:101EB00019F0883711F0B9C0006104FF09C004604F
:101EC00007C024FF08C0066006C028E030E005C057
:101ED00020E130E002C020E132E0520107FF09C0FA
:101EE000F4E0AF0EB11CF2016081718182819381B7
:101EF00008C0F2E0AF0EB11CF2016081718180E098
:101F000090E0A30144D2E82EE6180F77302E36FE7B
:101F10000BC0332D3E7FE11650F434FE0AC032FC74
:101F200008C0332D3E7E05C00E2D332D03C00E2D6F
:101F300001C0012F34FF0CC0FE01EE0DF11D8081A8
:101F4000803311F4397E08C032FF05C00E5F04C033
:101F5000832F867809F00F5F33FD12C030FF06C073
:101F60001E2D0F1518F41F0D101B0F2D0F1560F4EB
:101F7000B60180E290E03B8B8FD10F5F3B89F6CFBB
:101F80000F1510F4F01A01C0F12C34FF11C0B60186
:101F900080E390E03B8B80D13B8932FF16C031FD5E
:101FA00003C088E790E002C088E590E0B6010CC06D
:101FB000832F867851F031FF02C08BE201C080E2AE
:101FC00037FD8DE2B60190E067D1E11630F4B6013D
:101FD00080E390E061D11150F8CFEA94F301EE0D67
:101FE000F11D8081B60190E057D1E110F6CF14C009
:101FF000F4E0FF1548F584E0F81A33FE1DC0211007
:1020000024C003FF27C00CE810E0F32DF0713F2E31
:10201000F8018491811121C0FF2009F4FDCCB601A3
:1020200080E290E039D1FA94F7CFF601868197816A
:1020300023C08FEF9FEF20C0B60180E290E02CD14B
:10204000FA94F110F9CFDBCFF12CB601822D90E09C
:1020500023D1D7CF00E910E0D8CF31108052B6019C
:1020600090E01AD10F5F1F4FD3CF23E02F1510F44C
:1020700083E0C2CFF12CC5CF63960FB6F894DEBFD4
:102080000FBECDBFDF91CF911F910F91FF90EF90C9
:10209000DF90CF90BF90AF909F908F907F906F9088
:1020A0005F904F903F902F9008952A0D3B1D4C1D3F
:1020B0005D1D6E1D7F1D801F911F0895283008F043
:1020C00027E03327DA01990F311D87FD91600096D3
:1020D0006105710539F432602E5F3D9330E32A9536
:1020E000E1F708959F3F30F080387105610509F0F0
:1020F0003C5F3C5F3D93913008F08068911DDF9319
:10210000CF931F930F93FF92EF92192F987F96957D
:10211000E92F96959695E90FFF27E251FF4F9927F2
:102120003327EE24FF24A701E701059008940794C4
:1021300028F4360FE71EF81E491F511D660F771F42
:10214000881F991F0694A1F70590079428F4E70EBD
:10215000F81E491F561FC11D770F881F991F661F44
:102160000694A1F70590079428F4F80E491F561F0E
:10217000C71FD11D880F991F661F771F0694A1F7EF
:102180000590079420F4490F561FC71FD81F990FB9
:10219000661F771F881F0694A9F784911095177002
:1021A00041F0D695C79557954795F794E7941A95BA
:1021B000C1F7E4E9F0E068941590159135916591C7
:1021C000959105907FE27395E118F10A430B560B48
:1021D000C90BD009C0F7E10CF11E431F561FC91FE0
:1021E000D01D7EF4703311F48A95E6CFE894015047
:1021F00030F0080F0AF40027021708F4202F239567
:10220000022F7A3328F079E37D932A95E9F710C0FD
:102210007D932A9589F60694979567953795179536
:102220001794E118F10A430B560BC90BD00998F02B
:1022300023957E9173957A3308F070E37C93201395
:10224000B8F77E9170617D9330F0839571E37D9353
:1022500070E32A95E1F71124EF90FF900F911F9101
:10226000CF91DF91992787FD90950895FC01059006
:10227000615070400110D8F7809590958E0F9F1F88
:102280000895FC016150704001900110D8F78095CD
:1022900090958E0F9F1F08950F931F93CF93DF93F9
:1022A000FB01238121FD03C08FEF9FEF28C022FF98
:1022B00016C046815781248135814217530744F463
:1022C000A081B1819D012F5F3F4F318320838C938B
:1022D000268137812F5F3F4F3783268310C0EB0164
:1022E000092F182F0084F185E02D0995892BE1F63F
:1022F0008E819F8101969F838E83812F902FDF9106
:10230000CF911F910F910895CF93DF93CDB7DEB793
:10231000AE014B5F5F4FFA0161917191AF01809106
:1023200076029091770239DBDF91CF9108950F9378
:102330001F93CF93DF93E0917602F0917702238190
:1023400021FF1BC08C01D0E0C0E0F80181918F011A
:102350006091760270917702DB011896ED91FC9105
:102360001997882331F00995892B79F3DFEFCFEFA7
:10237000ECCF8AE00995892B19F08FEF9FEF02C00F
:102380008D2F9C2FDF91CF911F910F910895FA010E
:10239000AA27283051F1203181F1E8946F936E7FA4
:1023A0006E5F7F4F8F4F9F4FAF4FB1E03ED0B4E095
:1023B0003CD0670F781F891F9A1FA11D680F791FD6
:1023C0008A1F911DA11D6A0F711D811D911DA11DE7
:1023D00020D009F468943F912AE0269F11243019F7
:1023E000305D3193DEF6CF010895462F4770405D92
:1023F0004193B3E00FD0C9F7F6CF462F4F70405D41
:102400004A3318F0495D31FD4052419302D0A9F79B
:10241000EACFB4E0A6959795879577956795BA9595
:10242000C9F700976105710508959B01AC010A2E5B
:1024300006945795479537952795BA95C9F7620F32
:0E244000731F841F951FA01D0895F894FFCFF1
:10244E0000000002000000008506000000000404E9
:10245E003200320025322E3366006C6F77657220A3
:10246E0063616C6962726174696F6E20646174611C
:10247E000D0075707065722063616C6962726174B3
:10248E00696F6E20646174610D00616C6976650020
:10249E0020656E746572696E67206D61696E206C61
:1024AE006F6F700D00676F7420736572766F2063A7
:1024BE006F6D6D616E640D0072656365697665643E
:1024CE0020646174612025660D0A007365742070A6
:0E24DE006F77657220746F2025690D0A00006B
:00000001FF
