:100000000C9446000C9465000C9465000C946500FB
:100010000C9465000C94EB000C940F010C945F01A0
:100020000C948B010C9465000C9465000C94650095
:100030000C9465000C9465000C9465000C946500AC
:100040000C9465000C9465000C9465000C9465009C
:100050000C9465000C9465000C9465000C9465008C
:100060000C9465000C9465000C9465000C9465007C
:100070000C9465000C9465000C94BB000C94650016
:100080000C9465000C9465000C94650011241FBE4F
:10009000CFEFD0E1DEBFCDBF11E0A0E0B1E0EAE4F8
:1000A000F5E000E00BBF02C007900D92A030B10751
:1000B000D9F711E0A0E0B1E001C01D92A435B1076D
:1000C000E1F70E94F9010C94A3020C940000109235
:1000D000980088E080939900EBE9F0E080818260ED
:1000E000808388E980939A0086E080939D0008953C
:1000F000982F80919B0085FFFCCF90939C000895E2
:10010000FC0107C080919B0085FFFCCF3196909346
:100110009C0090819923B1F70895AC0120E030E074
:1001200070E00CC0FA01E20FF31FE08180919B00A8
:1001300085FFFCCFE0939C002F5F3F4F26173707CA
:100140008CF308959091000180910101981719F4A2
:100150002FEF3FEF0EC0E0910001F0E0E45BFE4FB7
:100160009081809100018F5F877080930001292F1B
:1001700030E0C90108951F920F920FB60F920BB68F
:100180000F9211248F939F93EF93FF93E0910101BE
:1001900080919C00F0E0E45BFE4F80838091010140
:1001A0008F5F877080930101909101018091000120
:1001B000981731F4809100018F5F87708093000160
:1001C000FF91EF919F918F910F900BBE0F900FBEFB
:1001D0000F901F9018951F920F920FB60F920BB6AB
:1001E0000F9211248F939F93EF93FF93E091480117
:1001F000F0E08CB59DB5EE0FFF1FEE5DFE4F9183D5
:1002000080831DBC1CBC7894FF91EF919F918F91CE
:100210000F900BBE0F900FBE0F901F9018951F925E
:100220000F920FB60F920BB60F9211242F933F939C
:100230008F939F93EF93FF9380914601843060F4F6
:1002400020914201309143018CB59DB5820F931FDF
:1002500090934301809342017894809146018330CA
:10026000C9F4E0914801F0E080914201909143018E
:10027000EE0FFF1FEE5FFE4F9183808310924301CC
:10028000109242018091480190E001968770907031
:10029000809348018091460190E0019687709070AC
:1002A00080934601FF91EF919F918F913F912F9104
:1002B0000F900BBE0F900FBE0F901F9018951F92BE
:1002C0000F920FB60F920BB60F9211248F939F933C
:1002D000AF93BF93EF93FF93E0914A01F0E0A8E85A
:1002E000B0E08D919C911197EE0FFF1FEE5CFE4FD9
:1002F0009183808311961C921E927894FF91EF91C6
:10030000BF91AF919F918F910F900BBE0F900FBE39
:100310000F901F9018951F920F920FB60F920BB669
:100320000F9211242F933F938F939F93EF93FF93FB
:1003300080914701843070F420914401309145014F
:100340008091880090918900820F931F90934501BE
:10035000809344017894809147018330C9F4E091FF
:100360004A01F0E08091440190914501EE0FFF1F9A
:10037000EE5EFE4F918380831092450110924401FE
:1003800080914A0190E001968770907080934A01B5
:100390008091470190E001968770907080934701AB
:1003A000FF91EF919F918F913F912F910F900BBEF5
:1003B0000F900FBE0F901F9018958FEF80936A00DB
:1003C0008BEB8ABF80EF89BF1DBC1CBC8EB58160E2
:1003D0008EBD1092890010928800EAE8F0E08081DA
:1003E000816080830E94670080E187BB87E084BBD7
:1003F00008959F92AF92BF92CF92DF92EF92FF92B9
:100400000F931F93DF93CF93CDB7DEB7A0970FB6AF
:10041000F894DEBF0FBECDBF0E94DD0178946E015F
:100420000894C11CD11C71E1A72EB12CAC0EBD1ECD
:1004300062E6962E04E00E94A2009C0197FDFBCF8D
:10044000009791F08F37910579F093BE05BB880F27
:10045000892F881F990B892B11F0A99A01C0A89A9E
:10046000822F880F81BF03C015BA18BA13BE2F3769
:10047000310529F462E371E042E251E004C062E137
:1004800071E042E051E0F894809148018093490185
:1004900080914A0180934B0120E030E0FA01E20FA5
:1004A000F31F80819181F601E20FF31F9183808316
:1004B000FB01E20FF31F80819181F501E20FF31F31
:1004C000918380832E5F3F4F2031310539F7789437
:1004D000EE24FF2480914B01F701E80FF11DE77036
:1004E000F070EE0FFF1FEC0DFD1D1089818990E06B
:1004F0000E947800812F90E00E9478000894E11C0F
:10050000F11C88E0E816F10429F7EE24FF2480911D
:100510004901F701E80FF11DE770F070EE0FFF1FC2
:10052000EC0DFD1D1081818190E00E947800812FEB
:1005300090E00E9478000894E11CF11C88E0E81625
:0A054000F10429F778CFF894FFCFFB
:00000001FF
